:10000000E2C00000FCC00000FAC00000F8C0000020
:10001000F6C00000F4C00000F2C00000F0C0000014
:10002000EEC00000ECC00000EAC00000CAC600003C
:100030006FC70000E4C00000E2C00000E0C00000A4
:10004000DEC00000DCC00000DAC00000D8C0000044
:10005000D6C00000D4C00000D2C00000F8C3000029
:10006000CEC00000CCC00000CAC00000C8C0000064
:10007000C6C00000E4070608F0080608F0084808B3
:100080006508F008B808CA082603500072006F001F
:100090006700720061006D006D0065007200200055
:1000A000530045005200490041004C00000022036B
:1000B00049006E0073007400720075006D006500E9
:1000C0006E00740020004D0049004400490000000B
:1000D0002A03440065007300690067006E00650034
:1000E0006400200069006E002000470061006C0081
:1000F000690063006900610000000403090409024B
:100100003E00020100C032090400000102020100A9
:100110000524000110042402060524060001070539
:1001200082030800FF09040100020A00000007051D
:100130000402400001070583024000010902650036
:10014000020100C03209040000000101000009247E
:10015000010001090001010904010002010300007E
:1001600007240100014100062402010100062402C7
:100170000202000924030103010201000924030211
:1001800004010101000905010240000000000525ED
:10019000010101090582024000000000052501015E
:1001A000031201100100000008FFFFFFFF00000123
:1001B0000200011201100102000008FFFFFFFF0111
:1001C000000102DC010011241FBECFEFD2E0DEBF30
:1001D000CDBF11E0A0E0B1E0EAE3F6E102C0059096
:1001E0000D92A232B107D9F722E0A2E2B1E001C03C
:1001F0001D92A135B207E1F7DAD00C941B0B00CFAA
:10020000FC01E058FF4FA081B1816C93A081B181C6
:100210009D012F5F3F4F318320832E173F0721F42D
:1002200012969C938E9311972FB7F894FC01EC577C
:10023000FF4F80818F5F80832FBF0895DC01AE5711
:10024000BF4FED91FC91119741911196FC93EE9364
:100250009C0120583F4FE217F30711F48D939C93B4
:100260002FB7F894FC01EC57FF4F90819150908389
:100270002FBF842F0895F89428E088E190E00FB60E
:10028000F894A895809360000FBE20936000FFCF84
:10029000882311F03F9A01C03F984798089588231A
:1002A00011F046980895469A0895CF93DF9300D0B1
:1002B00000D0CDB7DEB7962F92959F709983862B8D
:1002C0008A834B832C83BE016F5F7F4F82E091E076
:1002D0000E94840A82E091E00E94A40A0F900F908D
:1002E0000F900F90DF91CF91089584B7877F84BFDF
:1002F00088E10FB6F89480936000109260000FBE02
:1003000090E080E80FB6F8948093610090936100CC
:100310000FBE80E0BDDF24982C9A469A3E9A2FEFBC
:1003200083EC99E0215080409040E1F700C000004C
:100330001C9B1FC081E090E09093310180933001BD
:1003400080E0A6DF87E690E09093CD008093CC001C
:1003500086E08093CA001092C80088E18093C900AB
:10036000539A5A9A8AB180638AB98BB180638BB9E8
:100370001AC010923101109230013E9A80E08FDF56
:1003800080E086DF8FE390E09093CD008093CC00F7
:1003900086E08093CA0082E08093C80088E1809361
:1003A000C900539A5A9A02D584E085BD08959DDF0D
:1003B0002FB7F89489EB91E090933A028093390239
:1003C00090933C0280933B022FBF2FB7F89484E3B5
:1003D00091E09093B5018093B4019093B70180931D
:1003E000B6012FBF7894C3E0809130019091310124
:1003F000892B09F044C11C993EDFA8958091C80063
:1004000087FFB8C08091C80087FFFCCF2091CE0045
:100410002093290127FD0AC08091420290E0909329
:1004200044028093430221E030E00AC0822F90E032
:1004300090934402809343022093420220E030E0F4
:1004400040914302642F607F60932C01842F8F7052
:1004500080933201603B49F140F4603931F1603AF8
:1004600021F1603809F076C020C0603D49F018F4F1
:10047000603C31F06FC0603EC1F0603FA1F16AC0E6
:10048000232B19F0909129010AC09091C80097FF81
:10049000FCCF9091C80097FFFCCF9091CE00909335
:1004A0002A0120E040912A0164C0232B19F0909189
:1004B00029010AC09091C80097FFFCCF9091C80015
:1004C00097FFFCCF9091CE0090932A019091C800A5
:1004D00097FFFCCF9091C80097FFFCCF2091CE00F2
:1004E00020932B01DFCF882309F444C0863018F015
:1004F00020E040E010C04D70413079F49091C80088
:1005000097FFFCCF9091C80097FFFCCF4091CE00A1
:1005100040932A0120E060EF2CC0823059F5809191
:10052000C80087FFFCCF8091C80087FFFCCF4091B7
:10053000CE0040932A018091C80087FFFCCF8091B4
:10054000C80087FFFCCF2091CE0020932B0160EFE5
:1005500082E00FC020E060E880E0A7DE20E040916C
:100560002A0160E880E0A1DE20E040912B0160E8F4
:1005700080E09BDE6EE372E082E091E0FAD78823B0
:1005800009F401C190913F02892F807F80932C0153
:10059000292F2F7020933201803B09F140F48039DC
:1005A000F1F0803AE1F0803809F0EDC018C0803DEC
:1005B00049F018F4803C31F0E6C0803E81F0803F85
:1005C00019F1E1C08091C80085FFFCCF9093CE0067
:1005D000809140029091C80095FFFCCF4DC0809162
:1005E000C80085FFFCCF9093CE008091400290918F
:1005F000C80095FFFCCF8093CE008091410290917E
:10060000C80095FFFCCF38C0222309F4BCC02630B7
:1006100038F08091C80085FFFCCF9093CE00B3C026
:10062000892F8D70813089F48091C80087FFFCCFBD
:100630008091C80085FFFCCF9093CE00809140024E
:100640009091C80095FFFCCF17C0223009F09BC0E5
:100650008091C80085FFFCCF9093CE00809140022E
:100660009091C80095FFFCCF8093CE00809141020D
:100670009091C80095FFFCCF8093CE0084C01C9B56
:10068000BBCE9FB7F89480913D029FBF803849F060
:100690008BE091E0D5D697FD04C0682F89EB91E0FF
:1006A000AFDD8FB7F894D091B8018FBFA89903C080
:1006B000D13608F452C0A89A8091B801882319F065
:1006C0005D98C0932D01DD2349F084E391E0B6DD10
:1006D000682F8BE091E059D6D150F5CF80912D0154
:1006E000882341F080912D01815080932D0181114B
:1006F00001C05D9A80912E01882341F080912E01E6
:10070000815080932E01811101C05C9A8091270154
:100710009091280118161906E4F4CC97CD9710F49F
:1007200081E001C080E0BBDD80912701909128012C
:100730000197C29710F481E001C080E0A9DD8091AB
:100740002701909128010197909328018093270118
:1007500004C080E0A4DD80E09BDD9FB7F894809129
:100760003D029FBF882361F089EB91E067DD9091A6
:10077000C80095FFFCCF8093CE005C98C0932E01FB
:100780008BE091E04FD639D52FCE8BE091E0B0D5FC
:1007900082E091E080C68BE091E041C5CF92DF928C
:1007A000EF92FF92CF93FC018489813031F0823047
:1007B00011F0C0E003C0C0E201C0C0E38389823011
:1007C00009F4C8608589873031F0883031F086308F
:1007D00029F4C26003C0C46001C0C6601092C900A1
:1007E0001092C8001092CA00C784D088E188F288AD
:1007F00081E090EBC91694E0D906E104F10409F018
:1008000080E080932201C701B60122E030E040E0A1
:1008100050E0EFD620583B47414E5F4FCA01B90127
:10082000A7019601C4D6215031093093CD00209301
:10083000CC00C093CA0082E08093C80088E980930E
:10084000C900CF91FF90EF90DF90CF9008951F9255
:100850000F920FB60F9211242F933F934F935F93F4
:100860006F937F938F939F93AF93BF93EF93FF9378
:100870006091CE008EB3843019F484E391E0C0DC43
:10088000FF91EF91BF91AF919F918F917F916F9168
:100890005F914F913F912F910F900FBE0F901F903E
:1008A0001895209126012093250130912401309341
:1008B0002301FC019585892F8170809326019695EF
:1008C00091709093240190912201992319F088E767
:1008D00090E006C0211108C0882331F082E390E047
:1008E00090932801809327010895292F33272230E0
:1008F000310591F023303105D1F02130310509F077
:100900003EC08091300190913101892B71F182E1DB
:1009100090E023EB31E037C08091300190913101BC
:10092000892B41F18EE390E02EEF30E02CC0992727
:100930008130910541F08230910541F0892BF9F425
:10094000EAEFF0E00EC0E0EDF0E00BC08091300186
:1009500090913101892B19F0E8E8F0E002C0EEEA4D
:10096000F0E0849190E09F010EC082E190E021EAE6
:1009700031E009C085E690E02CE331E004C080E07E
:1009800090E020E030E0FA0131832083089528E0F0
:1009900030E040E02817390720F44F5F220F331F63
:1009A000F9CF842F8295807F08958093E900EBEE44
:1009B000F0E0808181608083EDEEF0E01082609352
:1009C000EC0040838091EE00881F8827881F0895DF
:1009D0001092F40080E08093E9001092F0001092F1
:1009E000E8001092ED009091EB009E7F9093EB0059
:1009F0008F5F853081F708958091490287FD05C09A
:100A00008091E80080FF0DC010C08091E80082FD59
:100A100004C08EB38111F9CF08958091E8008B77DF
:100A200007C08EB38111ECCF08958091E8008E77D6
:100A30008093E800089585E69091EC0090FF05C052
:100A40009091E80090FF05C01BC09091E80092FDD6
:100A500017C09EB39923B1F09EB39530A9F0909141
:100A6000EB0095FD13C09091E10092FFE5CF9091CE
:100A7000E1009B7F9093E1008150F1F684E00895BE
:100A800080E0089582E0089583E0089581E008956C
:100A9000EF92FF920F931F93CF93DF93EC018B01A3
:100AA0007A01C9DF81111DC001151105C9F08091BE
:100AB000E80085FD0EC08091E8008E778093E80005
:100AC000E114F10471F3F7010995813051F785E0E4
:100AD00008C088818093F100015011092196E4CF6C
:100AE00080E0DF91CF911F910F91FF90EF900895DB
:100AF000EF92FF920F931F93CF93DF93EC018B0143
:100B00007A0199DF81111DC001151105C9F080918D
:100B1000E80085FD0EC08091E8008B778093E800A7
:100B2000E114F10471F3F7010995813051F785E083
:100B300008C08091F1008883015011092196E4CF0B
:100B400080E0DF91CF911F910F91FF90EF9008957A
:100B500020914F02309150022617370748F0611557
:100B6000710539F42091E8002E772093E80001C048
:100B7000B90130E06115710591F12091E80023FD84
:100B800038C02091E80022FF06C08091E80082FF73
:100B900029C080E008952EB3222369F12EB32530B9
:100BA00061F12091E80020FFE5CF2091F200FC01E7
:100BB000CF016115710549F0283038F48191809397
:100BC000F100615071092F5FF3CF31E0283009F057
:100BD00030E02091E8002E772093E800CBCF311150
:100BE000CCCFD3CF8EB3882331F08EB3853069F666
:100BF00004C081E0089582E0089583E00895209183
:100C00004F02309150022617370748F061157105E1
:100C100039F42091E8002E772093E80001C0B90153
:100C200030E06115710599F12091E80023FD39C08C
:100C30002091E80022FF06C08091E80082FF2AC0D0
:100C400080E008952EB3222371F12EB3253069F18F
:100C50002091E80020FFE5CF2091F200FC01CF01B8
:100C60006115710551F0283040F484918093F100B2
:100C7000615071092F5F3196F2CF31E0283009F0D1
:100C800030E02091E8002E772093E800CACF3111A0
:100C9000CBCFD2CF8EB3882331F08EB3853061F6BF
:100CA00004C081E0089582E0089583E0089561150D
:100CB000710529F42091E8002B772093E800611555
:100CC000710549F12091E80023FD2AC02EB32223AB
:100CD00059F12EB3253051F12091E80022FFF2CFD7
:100CE000FC018091F200882371F09F012F5F3F4F3C
:100CF000C9014091F100408361507109611571058E
:100D0000C9F2F901EECFCF01D5CF8EB3882361F0C0
:100D10008EB3853059F08091E80080FFF6CF02C095
:100D200081E0089580E0089582E0089583E00895C9
:100D300042D044D01EBA109247021092460210923E
:100D4000450284E089BD89B5826089BD09B400FE91
:100D5000FDCF8091D800982F9F779093D80080681E
:100D60008093D800809163008E7F80936300809190
:100D7000D8008F7D8093D8008091E0008E7F809393
:100D8000E0008091E1008E7F8093E1008091E2009D
:100D900081608093E2008091E100877F8093E10091
:100DA0008091E20088608093E2000895C1DF81E0D5
:100DB0008093480208951092E20008951092E10095
:100DC00008951F920F920FB60F9211242F933F9305
:100DD0004F935F936F937F938F939F93AF93BF9343
:100DE000EF93FF938091E10080FF1BC08091E200B0
:100DF00080FF17C08091E1008E7F8093E100809199
:100E0000E2008E7F8093E2008091E2008061809317
:100E1000E2008091D80080628093D80019BC1EBA8D
:100E2000EBD18091E10084FF29C08091E20084FF32
:100E300025C084E089BD89B5826089BD09B400FE02
:100E4000FDCF8091D8008F7D8093D8008091E10004
:100E50008F7E8093E1008091E2008F7E8093E2009C
:100E60008091E20081608093E200809147028823B4
:100E700011F084E001C081E08EBBBED18091E10021
:100E800083FF27C08091E20083FF23C08091E100AF
:100E9000877F8093E10082E08EBB109247028091B1
:100EA000E1008E7F8093E1008091E2008E7F80934D
:100EB000E2008091E20080618093E20089DD42E0FF
:100EC00060E080E072DD8091F00088608093F00047
:100ED00093D18091E10082FF0AC08091E20082FFFD
:100EE00006C08091E1008B7F8093E10085D1FF9166
:100EF000EF91BF91AF919F918F917F916F915F9192
:100F00004F913F912F910F900FBE0F901F9018950A
:100F10001F920F920FB60F9211242F933F934F936E
:100F20005F936F937F938F939F93AF93BF93CF9371
:100F3000EF93FF93E9EEF0E0C081C7701082E0EF1D
:100F4000F0E08081877F808378941CD0F894E9EE6C
:100F5000F0E01082A0EFB0E08C9188608C93C083A9
:100F6000FF91EF91CF91BF91AF919F918F917F9121
:100F70006F915F914F913F912F910F900FBE0F9006
:100F80001F9018951F93CF93DF93CDB7DEB7AA9725
:100F90000FB6F894DEBF0FBECDBFE9E4F2E080915A
:100FA000F100819322E0E135F207C9F7209149026F
:100FB00030914A02832F90E08A30910508F010C1E9
:100FC000FC01E65CFF4F31C3203881F0223809F084
:100FD00007C180914D0287708093E9008091EB00FA
:100FE00085FB882780F91092E90006C080914502B0
:100FF00090914602911182609091E800977F9093C2
:10100000E8008093F1001092F100BDC0822F8D7F27
:1010100009F0E6C0222319F0223061F0D2C080919D
:101020004B02813009F0CDC0333009F080E080936D
:10103000460228C080914B02811124C020914D02AC
:10104000277009F4BEC02093E9008091EB0080FF77
:10105000B8C08091EB00333011F4806211C0806120
:101060008093EB0081E090E0022E01C0880F0A948B
:10107000EAF78093EA001092EA008091EB00886022
:101080008093EB001092E9008091E800877F7EC09A
:101090002111A6C010914B028091E800877F8093B8
:1010A000E800AADC8091E80080FD04C08EB38111C5
:1010B000F9CF87C0812F8F7711F093E001C092E0C4
:1010C0009EBB80688093E3007CC02058223008F0EB
:1010D00087C080914B0290914C028C3D23E0920797
:1010E00081F583E08A838AE289834FB7F894DE0131
:1010F000139620E03EE051E2E32FF0E050935700DA
:10110000E49120FF03C0E295EF703F5FEF7090E342
:101110009E0F9A3310F0E95C01C0E92F8E2F90E00A
:101120008D939D932F5F243139F74FBF8091E80055
:10113000877F8093E8006AE270E0CE01019608DDC7
:1011400011C0AE014F5F5F4F60914D02CEDB009743
:10115000C1F12091E800277F2093E800BC0189813C
:101160009A814DDD8091E8008B778093E80029C05B
:101170002038B1F58091E800877F8093E800809166
:1011800047028093F1008091E8008E778093E80019
:1011900033DC17C0211124C090914B02923088F4A7
:1011A0008091E800877F8093E8009093470224DCD9
:1011B00080914702882311F084E001C083E08EBB58
:1011C000E4DA8091E80083FF0DC08091EB0080623B
:1011D0008093EB008091E800877F8093E80002C055
:1011E000DADAEFCFAA960FB6F894DEBF0FBECDBF06
:1011F000DF91CF911F9108950895CF938EB38823E7
:1012000059F0C091E900C7701092E9008091E800A0
:1012100083FDB8DEC093E900CF9108950895CF9380
:10122000DF93EC018091E80083FF5FC0888190E04C
:1012300020914D0230914E022817390709F055C010
:1012400080914A02813249F018F48032C9F04DC0D1
:10125000823261F18332C9F148C080914902813AFA
:1012600009F043C08091E800877F8093E80067E041
:1012700070E0CE010F966CDC8091E8008B7713C094
:1012800080914902813289F58091E800877F8093BF
:10129000E80067E070E0CE010F9609DDCE017EDA4E
:1012A0008091E8008E778093E8001FC0809149020A
:1012B0008132D9F48091E800877F8093E8008091A3
:1012C0004B028D87CE01EDDA0DC08091490281324B
:1012D00061F48091E800877F8093E80060914B0281
:1012E000CE019CDFDF91CF9187CBDF91CF91089525
:1012F0000F931F93CF93DF93EC01FC013D9689E0A0
:10130000DF011D928A95E9F72A813B818C81882330
:1013100011F014E001C010E00981C90138DB412F50
:10132000482B426061E8802F40DB882341F12E8109
:101330003F818885882311F014E001C010E00D8101
:10134000C90125DB412F482B426060E8802F2DDB4F
:101350008823A9F02A853B858C85882311F014E029
:1013600001C010E0C985C90112DB412F482B426042
:1013700061EC8C2FDF91CF911F910F9116CB80E004
:10138000DF91CF911F910F910895CF93C62F2EB368
:101390002430E9F4FC014785508961897289452B25
:1013A000462B472BA1F081818093E9008091E800D2
:1013B00085FF04C0C093F10080E00AC08091E8007E
:1013C0008E778093E80037DB8823A1F301C082E0A9
:1013D000CF9108952EB3243019F5FC01478550892B
:1013E00061897289452B462B472BD1F081818093EF
:1013F000E9008091F200882389F09091E8008091C3
:10140000E8008E778093E80095FD08C014DB811119
:1014100008C08091E8008E778093E80080E008950E
:1014200082E008952EB3243051F4FC0147855089A1
:1014300061897289452B462B472B09F0CBCF089544
:101440002EB3243019F08FEF9FEF0895FC014785EC
:10145000508961897289452B462B472BA1F38581E1
:101460008093E9008091E80082FFEDCF8091F20047
:10147000882321F02091F10030E002C02FEF3FEFF0
:101480008091F200811105C08091E8008B778093F4
:10149000E800C90108950F931F93CF93DF93EC01E8
:1014A0001981111105C01D81111115C081E027C0DE
:1014B0002A813B818C81882311F004E001C000E087
:1014C000C90165DA402F482B426061E8812F6DDA4F
:1014D0008111E9CF14C02E813F818885882311F0C6
:1014E000C4E001C0C0E0C90152DA4C2F482B426071
:1014F00060E8812FDF91CF911F910F9156CADF9144
:10150000CF911F910F910895FC01CB012EB3243090
:10151000C9F421812093E9002091E80025FF10C043
:1015200040E050E064E070E0B3DA81110CC08091DB
:10153000E80085FD05C08091E8008E778093E80083
:1015400080E0089582E008952EB3243071F4FC0108
:1015500081818093E9008091F200882341F080919D
:10156000E8008E778093E80066CA82E0089580E004
:101570000895FC01CB012EB3243011F080E00895D2
:1015800025812093E9002091E80025FFF7CF40E076
:1015900050E064E070E0ACDA8091E80085FD05C0C1
:1015A0008091E8008B778093E80081E00895A1E2C4
:1015B0001A2EAA1BBB1BFD010DC0AA1FBB1FEE1FCD
:1015C000FF1FA217B307E407F50720F0A21BB30B18
:1015D000E40BF50B661F771F881F991F1A9469F794
:1015E00060957095809590959B01AC01BD01CF01F0
:1015F0000895052E97FB16F400940FD057FD05D0E3
:10160000D6DF07FC02D046F408C0509540953095CF
:1016100021953F4F4F4F5F4F08959095809570955E
:1016200061957F4F8F4F9F4F0895EE0FFF1F0590DD
:0A163000F491E02D0994F894FFCF27
:10163A0014000102400000014000000003400000C5
:10164A000440000002080000000000000000000042
:02165A0000008E
:00000001FF
